{
  "_format": "hh-sol-artifact-1",
  "contractName": "fpi",
  "sourceName": "contracts/fpi.sol",
  "abi": [
    {
      "anonymous": false,
      "inputs": [
        {
          "indexed": false,
          "internalType": "string[]",
          "name": "s",
          "type": "string[]"
        },
        {
          "indexed": false,
          "internalType": "string",
          "name": "ass",
          "type": "string"
        }
      ],
      "name": "TransactionRecorded",
      "type": "event"
    },
    {
      "anonymous": false,
      "inputs": [
        {
          "indexed": false,
          "internalType": "address",
          "name": "user",
          "type": "address"
        }
      ],
      "name": "UserDoesntExist",
      "type": "event"
    },
    {
      "anonymous": false,
      "inputs": [
        {
          "indexed": false,
          "internalType": "string",
          "name": "_name",
          "type": "string"
        },
        {
          "indexed": false,
          "internalType": "string",
          "name": "user",
          "type": "string"
        },
        {
          "indexed": false,
          "internalType": "uint256",
          "name": "uniqueHash",
          "type": "uint256"
        }
      ],
      "name": "itemAdded",
      "type": "event"
    },
    {
      "inputs": [
        {
          "internalType": "address",
          "name": "",
          "type": "address"
        }
      ],
      "name": "OwnerToName",
      "outputs": [
        {
          "internalType": "string",
          "name": "",
          "type": "string"
        }
      ],
      "stateMutability": "view",
      "type": "function"
    },
    {
      "inputs": [
        {
          "internalType": "address",
          "name": "_userAddress",
          "type": "address"
        },
        {
          "internalType": "string",
          "name": "_name",
          "type": "string"
        },
        {
          "internalType": "string[]",
          "name": "ftrs",
          "type": "string[]"
        },
        {
          "internalType": "string[]",
          "name": "vals",
          "type": "string[]"
        }
      ],
      "name": "_addItem",
      "outputs": [],
      "stateMutability": "nonpayable",
      "type": "function"
    },
    {
      "inputs": [
        {
          "internalType": "address",
          "name": "userAddress",
          "type": "address"
        },
        {
          "internalType": "string",
          "name": "userName",
          "type": "string"
        }
      ],
      "name": "_addUser",
      "outputs": [],
      "stateMutability": "nonpayable",
      "type": "function"
    },
    {
      "inputs": [
        {
          "internalType": "uint256",
          "name": "_id",
          "type": "uint256"
        }
      ],
      "name": "_getHashFromId",
      "outputs": [
        {
          "internalType": "uint256",
          "name": "",
          "type": "uint256"
        }
      ],
      "stateMutability": "pure",
      "type": "function"
    },
    {
      "inputs": [
        {
          "internalType": "uint256",
          "name": "_hashValue",
          "type": "uint256"
        }
      ],
      "name": "_getHashToId",
      "outputs": [
        {
          "internalType": "uint256",
          "name": "",
          "type": "uint256"
        }
      ],
      "stateMutability": "view",
      "type": "function"
    },
    {
      "inputs": [
        {
          "internalType": "address",
          "name": "user",
          "type": "address"
        }
      ],
      "name": "_getOwnerItems",
      "outputs": [
        {
          "internalType": "uint256[]",
          "name": "",
          "type": "uint256[]"
        }
      ],
      "stateMutability": "view",
      "type": "function"
    },
    {
      "inputs": [
        {
          "internalType": "address",
          "name": "_userAddress",
          "type": "address"
        }
      ],
      "name": "_getOwnerToName",
      "outputs": [
        {
          "internalType": "string",
          "name": "",
          "type": "string"
        }
      ],
      "stateMutability": "view",
      "type": "function"
    },
    {
      "inputs": [
        {
          "internalType": "address",
          "name": "_userAddress",
          "type": "address"
        }
      ],
      "name": "_listAllUserItems",
      "outputs": [
        {
          "internalType": "string[]",
          "name": "names",
          "type": "string[]"
        },
        {
          "internalType": "string[][]",
          "name": "feature_keys",
          "type": "string[][]"
        },
        {
          "internalType": "string[][]",
          "name": "feature_values",
          "type": "string[][]"
        },
        {
          "internalType": "uint256[]",
          "name": "ids",
          "type": "uint256[]"
        }
      ],
      "stateMutability": "view",
      "type": "function"
    },
    {
      "inputs": [],
      "name": "_testAddItem",
      "outputs": [],
      "stateMutability": "nonpayable",
      "type": "function"
    },
    {
      "inputs": [],
      "name": "_testAddUser",
      "outputs": [],
      "stateMutability": "nonpayable",
      "type": "function"
    },
    {
      "inputs": [],
      "name": "_testGetTime",
      "outputs": [
        {
          "internalType": "uint256",
          "name": "",
          "type": "uint256"
        }
      ],
      "stateMutability": "view",
      "type": "function"
    },
    {
      "inputs": [],
      "name": "_testHistory",
      "outputs": [
        {
          "internalType": "string[][]",
          "name": "",
          "type": "string[][]"
        }
      ],
      "stateMutability": "view",
      "type": "function"
    },
    {
      "inputs": [
        {
          "internalType": "address",
          "name": "_userAddress",
          "type": "address"
        }
      ],
      "name": "_testListItems",
      "outputs": [],
      "stateMutability": "view",
      "type": "function"
    },
    {
      "inputs": [
        {
          "internalType": "uint256",
          "name": "flag",
          "type": "uint256"
        }
      ],
      "name": "_testListItemsByUser",
      "outputs": [],
      "stateMutability": "view",
      "type": "function"
    },
    {
      "inputs": [],
      "name": "_testTransferItem",
      "outputs": [],
      "stateMutability": "nonpayable",
      "type": "function"
    },
    {
      "inputs": [],
      "name": "_testgetOwnerItems",
      "outputs": [
        {
          "internalType": "uint256[]",
          "name": "",
          "type": "uint256[]"
        },
        {
          "internalType": "uint256[]",
          "name": "",
          "type": "uint256[]"
        }
      ],
      "stateMutability": "view",
      "type": "function"
    },
    {
      "inputs": [
        {
          "internalType": "address",
          "name": "_from",
          "type": "address"
        },
        {
          "internalType": "address",
          "name": "_to",
          "type": "address"
        },
        {
          "internalType": "uint256",
          "name": "_hash",
          "type": "uint256"
        }
      ],
      "name": "_transfer",
      "outputs": [],
      "stateMutability": "nonpayable",
      "type": "function"
    },
    {
      "inputs": [
        {
          "internalType": "uint256",
          "name": "m",
          "type": "uint256"
        }
      ],
      "name": "getHistory",
      "outputs": [
        {
          "internalType": "string[]",
          "name": "",
          "type": "string[]"
        }
      ],
      "stateMutability": "view",
      "type": "function"
    },
    {
      "inputs": [],
      "name": "getLengthItems",
      "outputs": [
        {
          "internalType": "uint256",
          "name": "",
          "type": "uint256"
        }
      ],
      "stateMutability": "view",
      "type": "function"
    },
    {
      "inputs": [],
      "name": "getYearMonthDateMinuteSecond",
      "outputs": [
        {
          "internalType": "uint256",
          "name": "",
          "type": "uint256"
        },
        {
          "internalType": "uint256",
          "name": "",
          "type": "uint256"
        },
        {
          "internalType": "uint256",
          "name": "",
          "type": "uint256"
        },
        {
          "internalType": "uint256",
          "name": "",
          "type": "uint256"
        },
        {
          "internalType": "uint256",
          "name": "",
          "type": "uint256"
        },
        {
          "internalType": "uint256",
          "name": "",
          "type": "uint256"
        }
      ],
      "stateMutability": "view",
      "type": "function"
    },
    {
      "inputs": [
        {
          "internalType": "uint256",
          "name": "",
          "type": "uint256"
        },
        {
          "internalType": "uint256",
          "name": "",
          "type": "uint256"
        }
      ],
      "name": "history",
      "outputs": [
        {
          "internalType": "string",
          "name": "",
          "type": "string"
        }
      ],
      "stateMutability": "view",
      "type": "function"
    },
    {
      "inputs": [
        {
          "internalType": "uint256",
          "name": "",
          "type": "uint256"
        }
      ],
      "name": "itemToOwner",
      "outputs": [
        {
          "internalType": "address",
          "name": "",
          "type": "address"
        }
      ],
      "stateMutability": "view",
      "type": "function"
    },
    {
      "inputs": [
        {
          "internalType": "uint256",
          "name": "",
          "type": "uint256"
        }
      ],
      "name": "items",
      "outputs": [
        {
          "internalType": "uint256",
          "name": "id",
          "type": "uint256"
        },
        {
          "internalType": "string",
          "name": "name",
          "type": "string"
        }
      ],
      "stateMutability": "view",
      "type": "function"
    },
    {
      "inputs": [],
      "name": "myAddress",
      "outputs": [
        {
          "internalType": "address",
          "name": "",
          "type": "address"
        }
      ],
      "stateMutability": "view",
      "type": "function"
    },
    {
      "inputs": [],
      "name": "purelyfortesting",
      "outputs": [],
      "stateMutability": "nonpayable",
      "type": "function"
    }
  ],
  "bytecode": "0x608060405234801561001057600080fd5b506150b8806100206000396000f3fe608060405234801561001057600080fd5b50600436106101735760003560e01c80638e8e2ca7116100de578063b64120dd11610097578063bfb231d211610071578063bfb231d21461042f578063c8691b2a14610460578063d25ec47514610490578063e35151101461049a57610173565b8063b64120dd1461039c578063baba9098146103cc578063bc6dd36f146103fc57610173565b80638e8e2ca7146102fb57806395fd977c14610305578063983523631461030f57806398f685101461032b578063a5540f0a14610349578063ae5e81631461036c57610173565b80633ff6f892116101305780633ff6f8921461024f5780635e920f9a146102595780636baba8931461027557806371d9e19e14610291578063729a7f47146102c1578063853dc90e146102dd57610173565b806307e0d006146101785780631a4d96cd146101a857806326b85ee1146101d857806330e0789e146101f657806334757054146102125780633cad3a9914610230575b600080fd5b610192600480360381019061018d9190613a23565b6104ca565b60405161019f9190613b18565b60405180910390f35b6101c260048036038101906101bd9190613b66565b610560565b6040516101cf9190613ba2565b60405180910390f35b6101e0610593565b6040516101ed9190613ba2565b60405180910390f35b610210600480360381019061020b9190613bbd565b6105ab565b005b61021a610624565b6040516102279190613c1f565b60405180910390f35b61023861062c565b604051610246929190613c3a565b60405180910390f35b61025761065d565b005b610273600480360381019061026e9190613a23565b610f76565b005b61028f600480360381019061028a9190613e9d565b611012565b005b6102ab60048036038101906102a69190613f58565b61103a565b6040516102b89190614017565b60405180910390f35b6102db60048036038101906102d69190614039565b6110f3565b005b6102e5611101565b6040516102f29190614263565b60405180910390f35b61030361139e565b005b61030d611432565b005b61032960048036038101906103249190613b66565b611464565b005b610333611496565b6040516103409190613c1f565b60405180910390f35b6103516114a3565b60405161036396959493929190614285565b60405180910390f35b61038660048036038101906103819190613a23565b6114d6565b6040516103939190614017565b60405180910390f35b6103b660048036038101906103b19190613b66565b611576565b6040516103c39190613c1f565b60405180910390f35b6103e660048036038101906103e19190613b66565b6115ae565b6040516103f39190613c1f565b60405180910390f35b61041660048036038101906104119190613a23565b6115d0565b604051610426949392919061436c565b60405180910390f35b61044960048036038101906104449190613b66565b611698565b6040516104579291906143cd565b60405180910390f35b61047a60048036038101906104759190613b66565b611754565b60405161048791906143fd565b60405180910390f35b61049861186f565b005b6104b460048036038101906104af9190613a23565b6118bc565b6040516104c19190614017565b60405180910390f35b60606000808373ffffffffffffffffffffffffffffffffffffffff1673ffffffffffffffffffffffffffffffffffffffff16815260200190815260200160002080548060200260200160405190810160405280929190818152602001828054801561055457602002820191906000526020600020905b815481526020019060010190808311610540575b50505050509050919050565b60026020528060005260406000206000915054906101000a900473ffffffffffffffffffffffffffffffffffffffff1681565b73e0f5206bbd039e7b0592d8918820024e2a7437b981565b60006105b6846118bc565b51116105c5576105c461441f565b5b60006105d0836118bc565b5111156105e7576105e283838361198d565b61061f565b7f3926c3cef678f54c481548b51be06d78530f93fdfdee25bec9f9ff2340cb87a6826040516106169190613ba2565b60405180910390a15b505050565b600042905090565b606080610638336104ca565b61065573e0f5206bbd039e7b0592d8918820024e2a7437b96104ca565b915091509091565b6000600567ffffffffffffffff81111561067a57610679613c8c565b5b6040519080825280602002602001820160405280156106ad57816020015b60608152602001906001900390816106985790505b5090506000600567ffffffffffffffff8111156106cd576106cc613c8c565b5b60405190808252806020026020018201604052801561070057816020015b60608152602001906001900390816106eb5790505b5090506040518060400160405280600481526020017f636f7374000000000000000000000000000000000000000000000000000000008152508260008151811061074d5761074c61444e565b5b60200260200101819052506040518060400160405280600581526020017f636f6c6f72000000000000000000000000000000000000000000000000000000815250826001815181106107a2576107a161444e565b5b60200260200101819052506040518060400160405280600481526020017f7479706500000000000000000000000000000000000000000000000000000000815250826002815181106107f7576107f661444e565b5b602002602001018190525060405180602001604052806000815250826003815181106108265761082561444e565b5b602002602001018190525060405180602001604052806000815250826004815181106108555761085461444e565b5b60200260200101819052506040518060400160405280600381526020017f3430300000000000000000000000000000000000000000000000000000000000815250816000815181106108aa576108a961444e565b5b60200260200101819052506040518060400160405280600381526020017f7265640000000000000000000000000000000000000000000000000000000000815250816001815181106108ff576108fe61444e565b5b60200260200101819052506040518060400160405280600781526020017f6469676974616c00000000000000000000000000000000000000000000000000815250816002815181106109545761095361444e565b5b602002602001018190525060405180602001604052806000815250816003815181106109835761098261444e565b5b602002602001018190525060405180602001604052806000815250816004815181106109b2576109b161444e565b5b60200260200101819052506109fe336040518060400160405280600581526020017f77617463680000000000000000000000000000000000000000000000000000008152508484611012565b6040518060400160405280600481526020017f636f73740000000000000000000000000000000000000000000000000000000081525082600081518110610a4857610a4761444e565b5b60200260200101819052506040518060400160405280600581526020017f636f6c6f7200000000000000000000000000000000000000000000000000000081525082600181518110610a9d57610a9c61444e565b5b60200260200101819052506040518060400160405280600481526020017f747970650000000000000000000000000000000000000000000000000000000081525082600281518110610af257610af161444e565b5b60200260200101819052506040518060200160405280600081525082600381518110610b2157610b2061444e565b5b60200260200101819052506040518060200160405280600081525082600481518110610b5057610b4f61444e565b5b60200260200101819052506040518060400160405280600381526020017f383030000000000000000000000000000000000000000000000000000000000081525081600081518110610ba557610ba461444e565b5b60200260200101819052506040518060400160405280600581526020017f776869746500000000000000000000000000000000000000000000000000000081525081600181518110610bfa57610bf961444e565b5b60200260200101819052506040518060400160405280600681526020017f636f74746f6e000000000000000000000000000000000000000000000000000081525081600281518110610c4f57610c4e61444e565b5b60200260200101819052506040518060200160405280600081525081600381518110610c7e57610c7d61444e565b5b60200260200101819052506040518060200160405280600081525081600481518110610cad57610cac61444e565b5b60200260200101819052506040518060400160405280600481526020017f636f73740000000000000000000000000000000000000000000000000000000081525082600081518110610d0257610d0161444e565b5b60200260200101819052506040518060400160405280600581526020017f636f6c6f7200000000000000000000000000000000000000000000000000000081525082600181518110610d5757610d5661444e565b5b60200260200101819052506040518060400160405280600481526020017f747970650000000000000000000000000000000000000000000000000000000081525082600281518110610dac57610dab61444e565b5b60200260200101819052506040518060200160405280600081525082600381518110610ddb57610dda61444e565b5b60200260200101819052506040518060200160405280600081525082600481518110610e0a57610e0961444e565b5b60200260200101819052506040518060400160405280600481526020017f313230300000000000000000000000000000000000000000000000000000000081525081600081518110610e5f57610e5e61444e565b5b60200260200101819052506040518060400160405280600481526020017f626c75650000000000000000000000000000000000000000000000000000000081525081600181518110610eb457610eb361444e565b5b60200260200101819052506040518060400160405280600981526020017f706f6c796573746572000000000000000000000000000000000000000000000081525081600281518110610f0957610f0861444e565b5b60200260200101819052506040518060200160405280600081525081600381518110610f3857610f3761444e565b5b60200260200101819052506040518060200160405280600081525081600481518110610f6757610f6661444e565b5b60200260200101819052505050565b61100b6000808373ffffffffffffffffffffffffffffffffffffffff1673ffffffffffffffffffffffffffffffffffffffff16815260200190815260200160002080548060200260200160405190810160405280929190818152602001828054801561100157602002820191906000526020600020905b815481526020019060010190808311610fed575b5050505050611a7a565b5050505050565b600061101d856118bc565b511161102857600080fd5b6110348484848461298a565b50505050565b6004602052816000526040600020818154811061105657600080fd5b90600052602060002001600091509150508054611072906144ac565b80601f016020809104026020016040519081016040528092919081815260200182805461109e906144ac565b80156110eb5780601f106110c0576101008083540402835291602001916110eb565b820191906000526020600020905b8154815290600101906020018083116110ce57829003601f168201915b505050505081565b6110fd8282612f5b565b5050565b60606000808160405160200161111791906144fe565b6040516020818303038152906040528051906020012060001c9050606060046000838152602001908152602001600020805480602002602001604051908101604052809291908181526020016000905b82821015611213578382906000526020600020018054611186906144ac565b80601f01602080910402602001604051908101604052809291908181526020018280546111b2906144ac565b80156111ff5780601f106111d4576101008083540402835291602001916111ff565b820191906000526020600020905b8154815290600101906020018083116111e257829003601f168201915b505050505081526020019060010190611167565b5050505081848151811061122a5761122961444e565b5b60200260200101819052505b60006004600084815260200190815260200160002080549050111561139557828061126090614548565b93505060046000838152602001908152602001600020805480602002602001604051908101604052809291908181526020016000905b828210156113425783829060005260206000200180546112b5906144ac565b80601f01602080910402602001604051908101604052809291908181526020018280546112e1906144ac565b801561132e5780601f106113035761010080835404028352916020019161132e565b820191906000526020600020905b81548152906001019060200180831161131157829003601f168201915b505050505081526020019060010190611296565b505050508184815181106113595761135861444e565b5b60200260200101819052508260405160200161137591906144fe565b6040516020818303038152906040528051906020012060001c9150611236565b80935050505090565b6113dd336040518060400160405280600581526020017f75736572310000000000000000000000000000000000000000000000000000008152506110f3565b61143073e0f5206bbd039e7b0592d8918820024e2a7437b96040518060400160405280600781526020017f53616d70617468000000000000000000000000000000000000000000000000008152506110f3565b565b600061143e6000611576565b9050611461813373e0f5206bbd039e7b0592d8918820024e2a7437b96000612fac565b50565b6000810361148a5761148973e0f5206bbd039e7b0592d8918820024e2a7437b9610f76565b5b61149333610f76565b50565b6000600580549050905090565b60008060008060008060006114b6610624565b90506114c181613227565b96509650965096509650965050909192939495565b600160205280600052604060002060009150905080546114f5906144ac565b80601f0160208091040260200160405190810160405280929190818152602001828054611521906144ac565b801561156e5780601f106115435761010080835404028352916020019161156e565b820191906000526020600020905b81548152906001019060200180831161155157829003601f168201915b505050505081565b6000808260405160200161158a91906144fe565b6040516020818303038152906040528051906020012060001c905080915050919050565b6000806003600084815260200190815260200160002054905080915050919050565b60608060608060006115e1866118bc565b51116115ec57600080fd5b6116816000808773ffffffffffffffffffffffffffffffffffffffff1673ffffffffffffffffffffffffffffffffffffffff16815260200190815260200160002080548060200260200160405190810160405280929190818152602001828054801561167757602002820191906000526020600020905b815481526020019060010190808311611663575b5050505050611a7a565b809450819550829650839750505050509193509193565b600581815481106116a857600080fd5b90600052602060002090600402016000915090508060000154908060010180546116d1906144ac565b80601f01602080910402602001604051908101604052809291908181526020018280546116fd906144ac565b801561174a5780601f1061171f5761010080835404028352916020019161174a565b820191906000526020600020905b81548152906001019060200180831161172d57829003601f168201915b5050505050905082565b606060008260405160200161176991906144fe565b6040516020818303038152906040528051906020012060001c905060046000828152602001908152602001600020805480602002602001604051908101604052809291908181526020016000905b828210156118635783829060005260206000200180546117d6906144ac565b80601f0160208091040260200160405190810160405280929190818152602001828054611802906144ac565b801561184f5780601f106118245761010080835404028352916020019161184f565b820191906000526020600020905b81548152906001019060200180831161183257829003601f168201915b5050505050815260200190600101906117b7565b50505050915050919050565b60006118b93373e0f5206bbd039e7b0592d8918820024e2a7437b98360405160200161189b91906145bb565b6040516020818303038152906040528051906020012060001c61198d565b50565b6060600160008373ffffffffffffffffffffffffffffffffffffffff1673ffffffffffffffffffffffffffffffffffffffff1681526020019081526020016000208054611908906144ac565b80601f0160208091040260200160405190810160405280929190818152602001828054611934906144ac565b80156119815780601f1061195657610100808354040283529160200191611981565b820191906000526020600020905b81548152906001019060200180831161196457829003601f168201915b50505050509050919050565b6000600360008381526020019081526020016000205490506000808473ffffffffffffffffffffffffffffffffffffffff1673ffffffffffffffffffffffffffffffffffffffff168152602001908152602001600020819080600181540180825580915050600190039060005260206000200160009091909190915055826002600083815260200190815260200160002060006101000a81548173ffffffffffffffffffffffffffffffffffffffff021916908373ffffffffffffffffffffffffffffffffffffffff160217905550611a6684826132cc565b50611a748285856001612fac565b50505050565b60608060608060008551905060008167ffffffffffffffff811115611aa257611aa1613c8c565b5b604051908082528060200260200182016040528015611ad557816020015b6060815260200190600190039081611ac05790505b50905060008267ffffffffffffffff811115611af457611af3613c8c565b5b604051908082528060200260200182016040528015611b2757816020015b6060815260200190600190039081611b125790505b50905060008367ffffffffffffffff811115611b4657611b45613c8c565b5b604051908082528060200260200182016040528015611b7957816020015b6060815260200190600190039081611b645790505b50905060008467ffffffffffffffff811115611b9857611b97613c8c565b5b604051908082528060200260200182016040528015611bc65781602001602082028036833780820191505090505b50905060005b8581101561297157606060008c8381518110611beb57611bea61444e565b5b602002602001015190506000600567ffffffffffffffff811115611c1257611c11613c8c565b5b604051908082528060200260200182016040528015611c4557816020015b6060815260200190600190039081611c305790505b5090506000600567ffffffffffffffff811115611c6557611c64613c8c565b5b604051908082528060200260200182016040528015611c9857816020015b6060815260200190600190039081611c835790505b509050600567ffffffffffffffff811115611cb657611cb5613c8c565b5b604051908082528060200260200182016040528015611ce957816020015b6060815260200190600190039081611cd45790505b50888681518110611cfd57611cfc61444e565b5b6020026020010181905250600567ffffffffffffffff811115611d2357611d22613c8c565b5b604051908082528060200260200182016040528015611d5657816020015b6060815260200190600190039081611d415790505b50878681518110611d6a57611d6961444e565b5b6020026020010181905250600060058481548110611d8b57611d8a61444e565b5b90600052602060002090600402016001018054611da7906144ac565b80601f0160208091040260200160405190810160405280929190818152602001828054611dd3906144ac565b8015611e205780601f10611df557610100808354040283529160200191611e20565b820191906000526020600020905b815481529060010190602001808311611e0357829003601f168201915b5050505050945060058481548110611e3b57611e3a61444e565b5b9060005260206000209060040201600301600081548110611e5f57611e5e61444e565b5b906000526020600020018054611e74906144ac565b80601f0160208091040260200160405190810160405280929190818152602001828054611ea0906144ac565b8015611eed5780601f10611ec257610100808354040283529160200191611eed565b820191906000526020600020905b815481529060010190602001808311611ed057829003601f168201915b505050505083600081518110611f0657611f0561444e565b5b602002602001018190525060058481548110611f2557611f2461444e565b5b9060005260206000209060040201600301600181548110611f4957611f4861444e565b5b906000526020600020018054611f5e906144ac565b80601f0160208091040260200160405190810160405280929190818152602001828054611f8a906144ac565b8015611fd75780601f10611fac57610100808354040283529160200191611fd7565b820191906000526020600020905b815481529060010190602001808311611fba57829003601f168201915b505050505083600181518110611ff057611fef61444e565b5b60200260200101819052506005848154811061200f5761200e61444e565b5b90600052602060002090600402016003016002815481106120335761203261444e565b5b906000526020600020018054612048906144ac565b80601f0160208091040260200160405190810160405280929190818152602001828054612074906144ac565b80156120c15780601f10612096576101008083540402835291602001916120c1565b820191906000526020600020905b8154815290600101906020018083116120a457829003601f168201915b5050505050836002815181106120da576120d961444e565b5b6020026020010181905250600584815481106120f9576120f861444e565b5b906000526020600020906004020160030160038154811061211d5761211c61444e565b5b906000526020600020018054612132906144ac565b80601f016020809104026020016040519081016040528092919081815260200182805461215e906144ac565b80156121ab5780601f10612180576101008083540402835291602001916121ab565b820191906000526020600020905b81548152906001019060200180831161218e57829003601f168201915b5050505050836003815181106121c4576121c361444e565b5b6020026020010181905250600584815481106121e3576121e261444e565b5b90600052602060002090600402016003016004815481106122075761220661444e565b5b90600052602060002001805461221c906144ac565b80601f0160208091040260200160405190810160405280929190818152602001828054612248906144ac565b80156122955780601f1061226a57610100808354040283529160200191612295565b820191906000526020600020905b81548152906001019060200180831161227857829003601f168201915b5050505050836004815181106122ae576122ad61444e565b5b6020026020010181905250600584815481106122cd576122cc61444e565b5b9060005260206000209060040201600201600585815481106122f2576122f161444e565b5b90600052602060002090600402016003016000815481106123165761231561444e565b5b9060005260206000200160405161232d9190614679565b90815260200160405180910390208054612346906144ac565b80601f0160208091040260200160405190810160405280929190818152602001828054612372906144ac565b80156123bf5780601f10612394576101008083540402835291602001916123bf565b820191906000526020600020905b8154815290600101906020018083116123a257829003601f168201915b5050505050826000815181106123d8576123d761444e565b5b6020026020010181905250600584815481106123f7576123f661444e565b5b90600052602060002090600402016002016005858154811061241c5761241b61444e565b5b90600052602060002090600402016003016001815481106124405761243f61444e565b5b906000526020600020016040516124579190614679565b90815260200160405180910390208054612470906144ac565b80601f016020809104026020016040519081016040528092919081815260200182805461249c906144ac565b80156124e95780601f106124be576101008083540402835291602001916124e9565b820191906000526020600020905b8154815290600101906020018083116124cc57829003601f168201915b5050505050826001815181106125025761250161444e565b5b6020026020010181905250600584815481106125215761252061444e565b5b9060005260206000209060040201600201600585815481106125465761254561444e565b5b906000526020600020906004020160030160028154811061256a5761256961444e565b5b906000526020600020016040516125819190614679565b9081526020016040518091039020805461259a906144ac565b80601f01602080910402602001604051908101604052809291908181526020018280546125c6906144ac565b80156126135780601f106125e857610100808354040283529160200191612613565b820191906000526020600020905b8154815290600101906020018083116125f657829003601f168201915b50505050508260028151811061262c5761262b61444e565b5b60200260200101819052506005848154811061264b5761264a61444e565b5b9060005260206000209060040201600201600585815481106126705761266f61444e565b5b90600052602060002090600402016003016003815481106126945761269361444e565b5b906000526020600020016040516126ab9190614679565b908152602001604051809103902080546126c4906144ac565b80601f01602080910402602001604051908101604052809291908181526020018280546126f0906144ac565b801561273d5780601f106127125761010080835404028352916020019161273d565b820191906000526020600020905b81548152906001019060200180831161272057829003601f168201915b5050505050826003815181106127565761275561444e565b5b6020026020010181905250600584815481106127755761277461444e565b5b90600052602060002090600402016002016005858154811061279a5761279961444e565b5b90600052602060002090600402016003016004815481106127be576127bd61444e565b5b906000526020600020016040516127d59190614679565b908152602001604051809103902080546127ee906144ac565b80601f016020809104026020016040519081016040528092919081815260200182805461281a906144ac565b80156128675780601f1061283c57610100808354040283529160200191612867565b820191906000526020600020905b81548152906001019060200180831161284a57829003601f168201915b5050505050826004815181106128805761287f61444e565b5b60200260200101819052506005848154811061289f5761289e61444e565b5b9060005260206000209060040201600001546040516020016128c191906144fe565b6040516020818303038152906040528051906020012060001c9050848a87815181106128f0576128ef61444e565b5b60200260200101819052508289878151811061290f5761290e61444e565b5b60200260200101819052508188878151811061292e5761292d61444e565b5b60200260200101819052508087878151811061294d5761294c61444e565b5b6020026020010181815250505050505050808061296990614548565b915050611bcc565b5083838383985098509850985050505050509193509193565b60006005805490509050600060056001816001815401808255809150500390600052602060002090600402019050818160000181905550848160010190816129d29190614827565b50826000815181106129e7576129e661444e565b5b60200260200101518160020185600081518110612a0757612a0661444e565b5b6020026020010151604051612a1c919061492a565b90815260200160405180910390209081612a369190614827565b5082600181518110612a4b57612a4a61444e565b5b60200260200101518160020185600181518110612a6b57612a6a61444e565b5b6020026020010151604051612a80919061492a565b90815260200160405180910390209081612a9a9190614827565b5082600281518110612aaf57612aae61444e565b5b60200260200101518160020185600281518110612acf57612ace61444e565b5b6020026020010151604051612ae4919061492a565b90815260200160405180910390209081612afe9190614827565b5082600381518110612b1357612b1261444e565b5b60200260200101518160020185600381518110612b3357612b3261444e565b5b6020026020010151604051612b48919061492a565b90815260200160405180910390209081612b629190614827565b5082600481518110612b7757612b7661444e565b5b60200260200101518160020185600481518110612b9757612b9661444e565b5b6020026020010151604051612bac919061492a565b90815260200160405180910390209081612bc69190614827565b508060030184600081518110612bdf57612bde61444e565b5b6020026020010151908060018154018082558091505060019003906000526020600020016000909190919091509081612c189190614827565b508060030184600181518110612c3157612c3061444e565b5b6020026020010151908060018154018082558091505060019003906000526020600020016000909190919091509081612c6a9190614827565b508060030184600281518110612c8357612c8261444e565b5b6020026020010151908060018154018082558091505060019003906000526020600020016000909190919091509081612cbc9190614827565b508060030184600381518110612cd557612cd461444e565b5b6020026020010151908060018154018082558091505060019003906000526020600020016000909190919091509081612d0e9190614827565b508060030184600481518110612d2757612d2661444e565b5b6020026020010151908060018154018082558091505060019003906000526020600020016000909190919091509081612d609190614827565b506000808773ffffffffffffffffffffffffffffffffffffffff1673ffffffffffffffffffffffffffffffffffffffff168152602001908152602001600020829080600181540180825580915050600190039060005260206000200160009091909190915055856002600084815260200190815260200160002060006101000a81548173ffffffffffffffffffffffffffffffffffffffff021916908373ffffffffffffffffffffffffffffffffffffffff160217905550505060006005805490509050612e5a81604051602001612e3891906144fe565b6040516020818303038152906040528051906020012060001c86876000612fac565b600081604051602001612e6d91906144fe565b6040516020818303038152906040528051906020012060001c905081600360008381526020019081526020016000208190555050507f1b1cf3af7aac4f1bf60fdf98878550a02c640800ae163ec468905522278966fe83600160008773ffffffffffffffffffffffffffffffffffffffff1673ffffffffffffffffffffffffffffffffffffffff1681526020019081526020016000206001600580549050612f159190614941565b604051602001612f2591906144fe565b6040516020818303038152906040528051906020012060001c604051612f4d939291906149f9565b60405180910390a150505050565b80600160008473ffffffffffffffffffffffffffffffffffffffff1673ffffffffffffffffffffffffffffffffffffffff1681526020019081526020016000209081612fa79190614827565b505050565b600080600080600080612fbd6114a3565b809650819750829850839950849a50859b5050505050505060606000880361301c576040518060400160405280601081526020017f4d616e756661637475726564206f6e20000000000000000000000000000000008152509050613055565b6040518060400160405280601981526020017f4f776e657273686970207472616e73666572726564206f6e200000000000000081525090505b8061305f88613510565b61306888613510565b61307188613510565b61307a88613510565b61308388613510565b61308c88613510565b6040516020016130a29796959493929190614ad6565b60405160208183030381529060405290506000880361310e57806130c58b6118bc565b6130e68c73ffffffffffffffffffffffffffffffffffffffff166014613670565b6040516020016130f893929190614c07565b6040516020818303038152906040529050613189565b806131188b6118bc565b6131398c73ffffffffffffffffffffffffffffffffffffffff166014613670565b6131428c6118bc565b6131638d73ffffffffffffffffffffffffffffffffffffffff166014613670565b604051602001613177959493929190614cb1565b60405160208183030381529060405290505b600460008c8152602001908152602001600020819080600181540180825580915050600190039060005260206000200160009091909190915090816131ce9190614827565b507fd06deaf63e56727fcd772325240c6922f479847d5db265b5206cda8d96926424600460008d815260200190815260200160002082604051613212929190614e80565b60405180910390a15050505050505050505050565b60008060008060008061324c62015180888161324657613245614eb7565b5b046138ac565b809650819750829850505050600062015180888161326d5761326c614eb7565b5b069050610e10818161328257613281614eb7565b5b049350610e10818161329757613296614eb7565b5b069050603c81816132ab576132aa614eb7565b5b049250603c81816132bf576132be614eb7565b5b0691505091939550919395565b6000806000905060005b6000808673ffffffffffffffffffffffffffffffffffffffff1673ffffffffffffffffffffffffffffffffffffffff1681526020019081526020016000208054905081101561339b57836000808773ffffffffffffffffffffffffffffffffffffffff1673ffffffffffffffffffffffffffffffffffffffff16815260200190815260200160002082815481106133705761336f61444e565b5b9060005260206000200154036133885780915061339b565b808061339390614548565b9150506132d6565b506000808573ffffffffffffffffffffffffffffffffffffffff1673ffffffffffffffffffffffffffffffffffffffff16815260200190815260200160002060016000808773ffffffffffffffffffffffffffffffffffffffff1673ffffffffffffffffffffffffffffffffffffffff168152602001908152602001600020805490506134289190614941565b815481106134395761343861444e565b5b90600052602060002001546000808673ffffffffffffffffffffffffffffffffffffffff1673ffffffffffffffffffffffffffffffffffffffff16815260200190815260200160002082815481106134945761349361444e565b5b90600052602060002001819055506000808573ffffffffffffffffffffffffffffffffffffffff1673ffffffffffffffffffffffffffffffffffffffff1681526020019081526020016000208054806134f0576134ef614ee6565b5b600190038181906000526020600020016000905590558091505092915050565b606060008203613557576040518060400160405280600181526020017f3000000000000000000000000000000000000000000000000000000000000000815250905061366b565b600082905060005b6000821461358957808061357290614548565b915050600a826135829190614f15565b915061355f565b60008167ffffffffffffffff8111156135a5576135a4613c8c565b5b6040519080825280601f01601f1916602001820160405280156135d75781602001600182028036833780820191505090505b5090505b60008514613664576001826135f09190614941565b9150600a856135ff9190614f46565b603061360b9190614f77565b60f81b8183815181106136215761362061444e565b5b60200101907effffffffffffffffffffffffffffffffffffffffffffffffffffffffffffff1916908160001a905350600a8561365d9190614f15565b94506135db565b8093505050505b919050565b6060600060028360026136839190614fab565b61368d9190614f77565b67ffffffffffffffff8111156136a6576136a5613c8c565b5b6040519080825280601f01601f1916602001820160405280156136d85781602001600182028036833780820191505090505b5090507f3000000000000000000000000000000000000000000000000000000000000000816000815181106137105761370f61444e565b5b60200101907effffffffffffffffffffffffffffffffffffffffffffffffffffffffffffff1916908160001a9053507f7800000000000000000000000000000000000000000000000000000000000000816001815181106137745761377361444e565b5b60200101907effffffffffffffffffffffffffffffffffffffffffffffffffffffffffffff1916908160001a905350600060018460026137b49190614fab565b6137be9190614f77565b90505b600181111561385e577f3031323334353637383961626364656600000000000000000000000000000000600f861660108110613800576137ff61444e565b5b1a60f81b8282815181106138175761381661444e565b5b60200101907effffffffffffffffffffffffffffffffffffffffffffffffffffffffffffff1916908160001a905350600485901c94508061385790614fed565b90506137c1565b50600084146138a2576040517f08c379a000000000000000000000000000000000000000000000000000000000815260040161389990615062565b60405180910390fd5b8091505092915050565b600080600080849050600062253d8c62010bd98301019050600062023ab182600402816138dc576138db614eb7565b5b059050600460038262023ab10201816138f8576138f7614eb7565b5b0582039150600062164b0960018401610fa0028161391957613918614eb7565b5b059050601f6004826105b5028161393357613932614eb7565b5b058403019250600061098f84605002816139505761394f614eb7565b5b059050600060508261098f028161396a57613969614eb7565b5b0585039050600b82816139805761397f614eb7565b5b05945084600c0260028301039150848360318603606402010192508298508197508096505050505050509193909250565b6000604051905090565b600080fd5b600080fd5b600073ffffffffffffffffffffffffffffffffffffffff82169050919050565b60006139f0826139c5565b9050919050565b613a00816139e5565b8114613a0b57600080fd5b50565b600081359050613a1d816139f7565b92915050565b600060208284031215613a3957613a386139bb565b5b6000613a4784828501613a0e565b91505092915050565b600081519050919050565b600082825260208201905092915050565b6000819050602082019050919050565b6000819050919050565b613a8f81613a7c565b82525050565b6000613aa18383613a86565b60208301905092915050565b6000602082019050919050565b6000613ac582613a50565b613acf8185613a5b565b9350613ada83613a6c565b8060005b83811015613b0b578151613af28882613a95565b9750613afd83613aad565b925050600181019050613ade565b5085935050505092915050565b60006020820190508181036000830152613b328184613aba565b905092915050565b613b4381613a7c565b8114613b4e57600080fd5b50565b600081359050613b6081613b3a565b92915050565b600060208284031215613b7c57613b7b6139bb565b5b6000613b8a84828501613b51565b91505092915050565b613b9c816139e5565b82525050565b6000602082019050613bb76000830184613b93565b92915050565b600080600060608486031215613bd657613bd56139bb565b5b6000613be486828701613a0e565b9350506020613bf586828701613a0e565b9250506040613c0686828701613b51565b9150509250925092565b613c1981613a7c565b82525050565b6000602082019050613c346000830184613c10565b92915050565b60006040820190508181036000830152613c548185613aba565b90508181036020830152613c688184613aba565b90509392505050565b600080fd5b600080fd5b6000601f19601f8301169050919050565b7f4e487b7100000000000000000000000000000000000000000000000000000000600052604160045260246000fd5b613cc482613c7b565b810181811067ffffffffffffffff82111715613ce357613ce2613c8c565b5b80604052505050565b6000613cf66139b1565b9050613d028282613cbb565b919050565b600067ffffffffffffffff821115613d2257613d21613c8c565b5b613d2b82613c7b565b9050602081019050919050565b82818337600083830152505050565b6000613d5a613d5584613d07565b613cec565b905082815260208101848484011115613d7657613d75613c76565b5b613d81848285613d38565b509392505050565b600082601f830112613d9e57613d9d613c71565b5b8135613dae848260208601613d47565b91505092915050565b600067ffffffffffffffff821115613dd257613dd1613c8c565b5b602082029050602081019050919050565b600080fd5b6000613dfb613df684613db7565b613cec565b90508083825260208201905060208402830185811115613e1e57613e1d613de3565b5b835b81811015613e6557803567ffffffffffffffff811115613e4357613e42613c71565b5b808601613e508982613d89565b85526020850194505050602081019050613e20565b5050509392505050565b600082601f830112613e8457613e83613c71565b5b8135613e94848260208601613de8565b91505092915050565b60008060008060808587031215613eb757613eb66139bb565b5b6000613ec587828801613a0e565b945050602085013567ffffffffffffffff811115613ee657613ee56139c0565b5b613ef287828801613d89565b935050604085013567ffffffffffffffff811115613f1357613f126139c0565b5b613f1f87828801613e6f565b925050606085013567ffffffffffffffff811115613f4057613f3f6139c0565b5b613f4c87828801613e6f565b91505092959194509250565b60008060408385031215613f6f57613f6e6139bb565b5b6000613f7d85828601613b51565b9250506020613f8e85828601613b51565b9150509250929050565b600081519050919050565b600082825260208201905092915050565b60005b83811015613fd2578082015181840152602081019050613fb7565b60008484015250505050565b6000613fe982613f98565b613ff38185613fa3565b9350614003818560208601613fb4565b61400c81613c7b565b840191505092915050565b600060208201905081810360008301526140318184613fde565b905092915050565b600080604083850312156140505761404f6139bb565b5b600061405e85828601613a0e565b925050602083013567ffffffffffffffff81111561407f5761407e6139c0565b5b61408b85828601613d89565b9150509250929050565b600081519050919050565b600082825260208201905092915050565b6000819050602082019050919050565b600081519050919050565b600082825260208201905092915050565b6000819050602082019050919050565b600082825260208201905092915050565b600061410982613f98565b61411381856140ed565b9350614123818560208601613fb4565b61412c81613c7b565b840191505092915050565b600061414383836140fe565b905092915050565b6000602082019050919050565b6000614163826140c1565b61416d81856140cc565b93508360208202850161417f856140dd565b8060005b858110156141bb578484038952815161419c8582614137565b94506141a78361414b565b925060208a01995050600181019050614183565b50829750879550505050505092915050565b60006141d98383614158565b905092915050565b6000602082019050919050565b60006141f982614095565b61420381856140a0565b935083602082028501614215856140b1565b8060005b85811015614251578484038952815161423285826141cd565b945061423d836141e1565b925060208a01995050600181019050614219565b50829750879550505050505092915050565b6000602082019050818103600083015261427d81846141ee565b905092915050565b600060c08201905061429a6000830189613c10565b6142a76020830188613c10565b6142b46040830187613c10565b6142c16060830186613c10565b6142ce6080830185613c10565b6142db60a0830184613c10565b979650505050505050565b600082825260208201905092915050565b6000614302826140c1565b61430c81856142e6565b93508360208202850161431e856140dd565b8060005b8581101561435a578484038952815161433b8582614137565b94506143468361414b565b925060208a01995050600181019050614322565b50829750879550505050505092915050565b6000608082019050818103600083015261438681876142f7565b9050818103602083015261439a81866141ee565b905081810360408301526143ae81856141ee565b905081810360608301526143c28184613aba565b905095945050505050565b60006040820190506143e26000830185613c10565b81810360208301526143f48184613fde565b90509392505050565b6000602082019050818103600083015261441781846142f7565b905092915050565b7f4e487b7100000000000000000000000000000000000000000000000000000000600052600160045260246000fd5b7f4e487b7100000000000000000000000000000000000000000000000000000000600052603260045260246000fd5b7f4e487b7100000000000000000000000000000000000000000000000000000000600052602260045260246000fd5b600060028204905060018216806144c457607f821691505b6020821081036144d7576144d661447d565b5b50919050565b6000819050919050565b6144f86144f382613a7c565b6144dd565b82525050565b600061450a82846144e7565b60208201915081905092915050565b7f4e487b7100000000000000000000000000000000000000000000000000000000600052601160045260246000fd5b600061455382613a7c565b91507fffffffffffffffffffffffffffffffffffffffffffffffffffffffffffffffff820361458557614584614519565b5b600182019050919050565b6000819050919050565b6000819050919050565b6145b56145b082614590565b61459a565b82525050565b60006145c782846145a4565b60208201915081905092915050565b600081905092915050565b60008190508160005260206000209050919050565b60008154614603816144ac565b61460d81866145d6565b94506001821660008114614628576001811461463d57614670565b60ff1983168652811515820286019350614670565b614646856145e1565b60005b8381101561466857815481890152600182019150602081019050614649565b838801955050505b50505092915050565b600061468582846145f6565b915081905092915050565b60006020601f8301049050919050565b600082821b905092915050565b6000600883026146dd7fffffffffffffffffffffffffffffffffffffffffffffffffffffffffffffffff826146a0565b6146e786836146a0565b95508019841693508086168417925050509392505050565b6000819050919050565b600061472461471f61471a84613a7c565b6146ff565b613a7c565b9050919050565b6000819050919050565b61473e83614709565b61475261474a8261472b565b8484546146ad565b825550505050565b600090565b61476761475a565b614772818484614735565b505050565b5b818110156147965761478b60008261475f565b600181019050614778565b5050565b601f8211156147db576147ac816145e1565b6147b584614690565b810160208510156147c4578190505b6147d86147d085614690565b830182614777565b50505b505050565b600082821c905092915050565b60006147fe600019846008026147e0565b1980831691505092915050565b600061481783836147ed565b9150826002028217905092915050565b61483082613f98565b67ffffffffffffffff81111561484957614848613c8c565b5b61485382546144ac565b61485e82828561479a565b600060209050601f831160018114614891576000841561487f578287015190505b614889858261480b565b8655506148f1565b601f19841661489f866145e1565b60005b828110156148c7578489015182556001820191506020850194506020810190506148a2565b868310156148e457848901516148e0601f8916826147ed565b8355505b6001600288020188555050505b505050505050565b600061490482613f98565b61490e81856145d6565b935061491e818560208601613fb4565b80840191505092915050565b600061493682846148f9565b915081905092915050565b600061494c82613a7c565b915061495783613a7c565b925082820390508181111561496f5761496e614519565b5b92915050565b60008154614982816144ac565b61498c8186613fa3565b945060018216600081146149a757600181146149bd576149f0565b60ff1983168652811515602002860193506149f0565b6149c6856145e1565b60005b838110156149e8578154818901526001820191506020810190506149c9565b808801955050505b50505092915050565b60006060820190508181036000830152614a138186613fde565b90508181036020830152614a278185614975565b9050614a366040830184613c10565b949350505050565b7f2d00000000000000000000000000000000000000000000000000000000000000815250565b7f2000000000000000000000000000000000000000000000000000000000000000815250565b7f3a00000000000000000000000000000000000000000000000000000000000000815250565b7f20474d5420000000000000000000000000000000000000000000000000000000815250565b6000614ae2828a6148f9565b9150614aee82896148f9565b9150614af982614a3e565b600182019150614b0982886148f9565b9150614b1482614a3e565b600182019150614b2482876148f9565b9150614b2f82614a64565b600182019150614b3f82866148f9565b9150614b4a82614a8a565b600182019150614b5a82856148f9565b9150614b6582614a8a565b600182019150614b7582846148f9565b9150614b8082614ab0565b60058201915081905098975050505050505050565b7f6279200000000000000000000000000000000000000000000000000000000000815250565b7f2028000000000000000000000000000000000000000000000000000000000000815250565b7f2029000000000000000000000000000000000000000000000000000000000000815250565b6000614c1382866148f9565b9150614c1e82614b95565b600382019150614c2e82856148f9565b9150614c3982614bbb565b600282019150614c4982846148f9565b9150614c5482614be1565b600282019150819050949350505050565b7f2066726f6d200000000000000000000000000000000000000000000000000000815250565b7f2920746f20000000000000000000000000000000000000000000000000000000815250565b6000614cbd82886148f9565b9150614cc882614c65565b600682019150614cd882876148f9565b9150614ce382614bbb565b600282019150614cf382866148f9565b9150614cfe82614c8b565b600582019150614d0e82856148f9565b9150614d1982614bbb565b600282019150614d2982846148f9565b9150614d3482614be1565b6002820191508190509695505050505050565b600081549050919050565b60008190508160005260206000209050919050565b60008154614d74816144ac565b614d7e81866140ed565b94506001821660008114614d995760018114614daf57614de2565b60ff198316865281151560200286019350614de2565b614db8856145e1565b60005b83811015614dda57815481890152600182019150602081019050614dbb565b808801955050505b50505092915050565b6000614df78383614d67565b905092915050565b6000600182019050919050565b6000614e1782614d47565b614e2181856142e6565b935083602082028501614e3385614d52565b8060005b85811015614e6e57848403895281614e4f8582614deb565b9450614e5a83614dff565b925060208a01995050600181019050614e37565b50829750879550505050505092915050565b60006040820190508181036000830152614e9a8185614e0c565b90508181036020830152614eae8184613fde565b90509392505050565b7f4e487b7100000000000000000000000000000000000000000000000000000000600052601260045260246000fd5b7f4e487b7100000000000000000000000000000000000000000000000000000000600052603160045260246000fd5b6000614f2082613a7c565b9150614f2b83613a7c565b925082614f3b57614f3a614eb7565b5b828204905092915050565b6000614f5182613a7c565b9150614f5c83613a7c565b925082614f6c57614f6b614eb7565b5b828206905092915050565b6000614f8282613a7c565b9150614f8d83613a7c565b9250828201905080821115614fa557614fa4614519565b5b92915050565b6000614fb682613a7c565b9150614fc183613a7c565b9250828202614fcf81613a7c565b91508282048414831517614fe657614fe5614519565b5b5092915050565b6000614ff882613a7c565b91506000820361500b5761500a614519565b5b600182039050919050565b7f537472696e67733a20686578206c656e67746820696e73756666696369656e74600082015250565b600061504c602083613fa3565b915061505782615016565b602082019050919050565b6000602082019050818103600083015261507b8161503f565b905091905056fea2646970667358221220b87956eaaf0d1fcaf56a21e991aeaa162eaec5a3b18b2aa583bd50cfae02464464736f6c63430008110033",
  "linkReferences": {},
  "deployedLinkReferences": {}
}