{
  "_format": "hh-sol-artifact-1",
  "contractName": "fpi",
  "sourceName": "contracts/fpi.sol",
  "abi": [
    {
      "anonymous": false,
      "inputs": [
        {
          "indexed": false,
          "internalType": "string[]",
          "name": "s",
          "type": "string[]"
        },
        {
          "indexed": false,
          "internalType": "string",
          "name": "ass",
          "type": "string"
        }
      ],
      "name": "TransactionRecorded",
      "type": "event"
    },
    {
      "anonymous": false,
      "inputs": [
        {
          "indexed": false,
          "internalType": "address",
          "name": "user",
          "type": "address"
        }
      ],
      "name": "UserDoesntExist",
      "type": "event"
    },
    {
      "anonymous": false,
      "inputs": [
        {
          "indexed": false,
          "internalType": "string",
          "name": "_name",
          "type": "string"
        },
        {
          "indexed": false,
          "internalType": "string",
          "name": "user",
          "type": "string"
        },
        {
          "indexed": false,
          "internalType": "uint256",
          "name": "uniqueHash",
          "type": "uint256"
        }
      ],
      "name": "itemAdded",
      "type": "event"
    },
    {
      "inputs": [
        {
          "internalType": "address",
          "name": "",
          "type": "address"
        }
      ],
      "name": "OwnerToName",
      "outputs": [
        {
          "internalType": "string",
          "name": "",
          "type": "string"
        }
      ],
      "stateMutability": "view",
      "type": "function"
    },
    {
      "inputs": [
        {
          "internalType": "address",
          "name": "_userAddress",
          "type": "address"
        },
        {
          "internalType": "string",
          "name": "_name",
          "type": "string"
        },
        {
          "internalType": "string[]",
          "name": "ftrs",
          "type": "string[]"
        },
        {
          "internalType": "string[]",
          "name": "vals",
          "type": "string[]"
        }
      ],
      "name": "_addItem",
      "outputs": [],
      "stateMutability": "nonpayable",
      "type": "function"
    },
    {
      "inputs": [
        {
          "internalType": "address",
          "name": "userAddress",
          "type": "address"
        },
        {
          "internalType": "string",
          "name": "userName",
          "type": "string"
        }
      ],
      "name": "_addUser",
      "outputs": [],
      "stateMutability": "nonpayable",
      "type": "function"
    },
    {
      "inputs": [
        {
          "internalType": "uint256",
          "name": "_id",
          "type": "uint256"
        }
      ],
      "name": "_getHashFromId",
      "outputs": [
        {
          "internalType": "uint256",
          "name": "",
          "type": "uint256"
        }
      ],
      "stateMutability": "pure",
      "type": "function"
    },
    {
      "inputs": [
        {
          "internalType": "uint256",
          "name": "_hashValue",
          "type": "uint256"
        }
      ],
      "name": "_getHashToId",
      "outputs": [
        {
          "internalType": "uint256",
          "name": "",
          "type": "uint256"
        }
      ],
      "stateMutability": "view",
      "type": "function"
    },
    {
      "inputs": [
        {
          "internalType": "address",
          "name": "user",
          "type": "address"
        }
      ],
      "name": "_getOwnerItems",
      "outputs": [
        {
          "internalType": "uint256[]",
          "name": "",
          "type": "uint256[]"
        }
      ],
      "stateMutability": "view",
      "type": "function"
    },
    {
      "inputs": [
        {
          "internalType": "address",
          "name": "_userAddress",
          "type": "address"
        }
      ],
      "name": "_getOwnerToName",
      "outputs": [
        {
          "internalType": "string",
          "name": "",
          "type": "string"
        }
      ],
      "stateMutability": "view",
      "type": "function"
    },
    {
      "inputs": [
        {
          "internalType": "address",
          "name": "_userAddress",
          "type": "address"
        }
      ],
      "name": "_listAllUserItems",
      "outputs": [
        {
          "internalType": "string[]",
          "name": "names",
          "type": "string[]"
        },
        {
          "internalType": "string[][]",
          "name": "feature_keys",
          "type": "string[][]"
        },
        {
          "internalType": "string[][]",
          "name": "feature_values",
          "type": "string[][]"
        },
        {
          "internalType": "uint256[]",
          "name": "ids",
          "type": "uint256[]"
        }
      ],
      "stateMutability": "view",
      "type": "function"
    },
    {
      "inputs": [],
      "name": "_testAddItem",
      "outputs": [],
      "stateMutability": "nonpayable",
      "type": "function"
    },
    {
      "inputs": [],
      "name": "_testAddUser",
      "outputs": [],
      "stateMutability": "nonpayable",
      "type": "function"
    },
    {
      "inputs": [],
      "name": "_testGetTime",
      "outputs": [
        {
          "internalType": "uint256",
          "name": "",
          "type": "uint256"
        }
      ],
      "stateMutability": "view",
      "type": "function"
    },
    {
      "inputs": [],
      "name": "_testHistory",
      "outputs": [
        {
          "internalType": "string[][]",
          "name": "",
          "type": "string[][]"
        }
      ],
      "stateMutability": "view",
      "type": "function"
    },
    {
      "inputs": [
        {
          "internalType": "address",
          "name": "_userAddress",
          "type": "address"
        }
      ],
      "name": "_testListItems",
      "outputs": [],
      "stateMutability": "view",
      "type": "function"
    },
    {
      "inputs": [
        {
          "internalType": "uint256",
          "name": "flag",
          "type": "uint256"
        }
      ],
      "name": "_testListItemsByUser",
      "outputs": [],
      "stateMutability": "view",
      "type": "function"
    },
    {
      "inputs": [],
      "name": "_testTransferItem",
      "outputs": [],
      "stateMutability": "nonpayable",
      "type": "function"
    },
    {
      "inputs": [],
      "name": "_testgetOwnerItems",
      "outputs": [
        {
          "internalType": "uint256[]",
          "name": "",
          "type": "uint256[]"
        },
        {
          "internalType": "uint256[]",
          "name": "",
          "type": "uint256[]"
        }
      ],
      "stateMutability": "view",
      "type": "function"
    },
    {
      "inputs": [
        {
          "internalType": "address",
          "name": "_from",
          "type": "address"
        },
        {
          "internalType": "address",
          "name": "_to",
          "type": "address"
        },
        {
          "internalType": "uint256",
          "name": "_hash",
          "type": "uint256"
        }
      ],
      "name": "_transfer",
      "outputs": [],
      "stateMutability": "nonpayable",
      "type": "function"
    },
    {
      "inputs": [
        {
          "internalType": "uint256",
          "name": "m",
          "type": "uint256"
        }
      ],
      "name": "getHistory",
      "outputs": [
        {
          "internalType": "string[]",
          "name": "",
          "type": "string[]"
        }
      ],
      "stateMutability": "view",
      "type": "function"
    },
    {
      "inputs": [],
      "name": "getLengthItems",
      "outputs": [
        {
          "internalType": "uint256",
          "name": "",
          "type": "uint256"
        }
      ],
      "stateMutability": "view",
      "type": "function"
    },
    {
      "inputs": [],
      "name": "getYearMonthDateMinuteSecond",
      "outputs": [
        {
          "internalType": "uint256",
          "name": "",
          "type": "uint256"
        },
        {
          "internalType": "uint256",
          "name": "",
          "type": "uint256"
        },
        {
          "internalType": "uint256",
          "name": "",
          "type": "uint256"
        },
        {
          "internalType": "uint256",
          "name": "",
          "type": "uint256"
        },
        {
          "internalType": "uint256",
          "name": "",
          "type": "uint256"
        },
        {
          "internalType": "uint256",
          "name": "",
          "type": "uint256"
        }
      ],
      "stateMutability": "view",
      "type": "function"
    },
    {
      "inputs": [
        {
          "internalType": "uint256",
          "name": "",
          "type": "uint256"
        }
      ],
      "name": "itemToOwner",
      "outputs": [
        {
          "internalType": "address",
          "name": "",
          "type": "address"
        }
      ],
      "stateMutability": "view",
      "type": "function"
    },
    {
      "inputs": [
        {
          "internalType": "uint256",
          "name": "",
          "type": "uint256"
        }
      ],
      "name": "items",
      "outputs": [
        {
          "internalType": "uint256",
          "name": "id",
          "type": "uint256"
        },
        {
          "internalType": "string",
          "name": "name",
          "type": "string"
        }
      ],
      "stateMutability": "view",
      "type": "function"
    },
    {
      "inputs": [],
      "name": "myAddress",
      "outputs": [
        {
          "internalType": "address",
          "name": "",
          "type": "address"
        }
      ],
      "stateMutability": "view",
      "type": "function"
    },
    {
      "inputs": [],
      "name": "purelyfortesting",
      "outputs": [],
      "stateMutability": "nonpayable",
      "type": "function"
    }
  ],
  "bytecode": "0x608060405234801561001057600080fd5b50614ef3806100206000396000f3fe608060405234801561001057600080fd5b50600436106101585760003560e01c806395fd977c116100c3578063baba90981161007c578063baba909814610381578063bc6dd36f146103b1578063bfb231d2146103e4578063c8691b2a14610415578063d25ec47514610445578063e35151101461044f57610158565b806395fd977c146102ba57806398352363146102c457806398f68510146102e0578063a5540f0a146102fe578063ae5e816314610321578063b64120dd1461035157610158565b80633ff6f892116101155780633ff6f892146102345780635e920f9a1461023e5780636baba8931461025a578063729a7f4714610276578063853dc90e146102925780638e8e2ca7146102b057610158565b806307e0d0061461015d5780631a4d96cd1461018d57806326b85ee1146101bd57806330e0789e146101db57806334757054146101f75780633cad3a9914610215575b600080fd5b61017760048036038101906101729190613a0e565b61047f565b6040516101849190613b03565b60405180910390f35b6101a760048036038101906101a29190613b51565b61054e565b6040516101b49190613b8d565b60405180910390f35b6101c5610581565b6040516101d29190613b8d565b60405180910390f35b6101f560048036038101906101f09190613ba8565b610599565b005b6101ff610612565b60405161020c9190613c0a565b60405180910390f35b61021d61061a565b60405161022b929190613c25565b60405180910390f35b61023c61064b565b005b61025860048036038101906102539190613a0e565b610fe6565b005b610274600480360381019061026f9190613e88565b611082565b005b610290600480360381019061028b9190613f43565b6110aa565b005b61029a6110b8565b6040516102a791906141a2565b60405180910390f35b6102b8611355565b005b6102c26113e9565b005b6102de60048036038101906102d99190613b51565b61141b565b005b6102e861144d565b6040516102f59190613c0a565b60405180910390f35b61030661145a565b604051610318969594939291906141c4565b60405180910390f35b61033b60048036038101906103369190613a0e565b61148d565b604051610348919061426f565b60405180910390f35b61036b60048036038101906103669190613b51565b61152d565b6040516103789190613c0a565b60405180910390f35b61039b60048036038101906103969190613b51565b611565565b6040516103a89190613c0a565b60405180910390f35b6103cb60048036038101906103c69190613a0e565b611587565b6040516103db9493929190614317565b60405180910390f35b6103fe60048036038101906103f99190613b51565b61164f565b60405161040c929190614378565b60405180910390f35b61042f600480360381019061042a9190613b51565b61170b565b60405161043c91906143a8565b60405180910390f35b61044d6117f7565b005b61046960048036038101906104649190613a0e565b611844565b604051610476919061426f565b60405180910390f35b6060600073ffffffffffffffffffffffffffffffffffffffff168273ffffffffffffffffffffffffffffffffffffffff16036104ba57600080fd5b6000808373ffffffffffffffffffffffffffffffffffffffff1673ffffffffffffffffffffffffffffffffffffffff16815260200190815260200160002080548060200260200160405190810160405280929190818152602001828054801561054257602002820191906000526020600020905b81548152602001906001019080831161052e575b50505050509050919050565b60026020528060005260406000206000915054906101000a900473ffffffffffffffffffffffffffffffffffffffff1681565b73e0f5206bbd039e7b0592d8918820024e2a7437b981565b60006105a484611844565b51116105b3576105b26143ca565b5b60006105be83611844565b5111156105d5576105d0838383611915565b61060d565b7f3926c3cef678f54c481548b51be06d78530f93fdfdee25bec9f9ff2340cb87a6826040516106049190613b8d565b60405180910390a15b505050565b600042905090565b6060806106263361047f565b61064373e0f5206bbd039e7b0592d8918820024e2a7437b961047f565b915091509091565b6000600567ffffffffffffffff81111561066857610667613c77565b5b60405190808252806020026020018201604052801561069b57816020015b60608152602001906001900390816106865790505b5090506000600567ffffffffffffffff8111156106bb576106ba613c77565b5b6040519080825280602002602001820160405280156106ee57816020015b60608152602001906001900390816106d95790505b5090506040518060400160405280600481526020017f636f7374000000000000000000000000000000000000000000000000000000008152508260008151811061073b5761073a6143f9565b5b60200260200101819052506040518060400160405280600581526020017f636f6c6f72000000000000000000000000000000000000000000000000000000815250826001815181106107905761078f6143f9565b5b60200260200101819052506040518060400160405280600481526020017f7479706500000000000000000000000000000000000000000000000000000000815250826002815181106107e5576107e46143f9565b5b60200260200101819052506040518060200160405280600081525082600381518110610814576108136143f9565b5b60200260200101819052506040518060200160405280600081525082600481518110610843576108426143f9565b5b60200260200101819052506040518060400160405280600381526020017f343030000000000000000000000000000000000000000000000000000000000081525081600081518110610898576108976143f9565b5b60200260200101819052506040518060400160405280600381526020017f7265640000000000000000000000000000000000000000000000000000000000815250816001815181106108ed576108ec6143f9565b5b60200260200101819052506040518060400160405280600781526020017f6469676974616c0000000000000000000000000000000000000000000000000081525081600281518110610942576109416143f9565b5b60200260200101819052506040518060200160405280600081525081600381518110610971576109706143f9565b5b602002602001018190525060405180602001604052806000815250816004815181106109a05761099f6143f9565b5b60200260200101819052506109ec336040518060400160405280600581526020017f77617463680000000000000000000000000000000000000000000000000000008152508484611082565b6040518060400160405280600481526020017f636f73740000000000000000000000000000000000000000000000000000000081525082600081518110610a3657610a356143f9565b5b60200260200101819052506040518060400160405280600581526020017f636f6c6f7200000000000000000000000000000000000000000000000000000081525082600181518110610a8b57610a8a6143f9565b5b60200260200101819052506040518060400160405280600481526020017f747970650000000000000000000000000000000000000000000000000000000081525082600281518110610ae057610adf6143f9565b5b60200260200101819052506040518060200160405280600081525082600381518110610b0f57610b0e6143f9565b5b60200260200101819052506040518060200160405280600081525082600481518110610b3e57610b3d6143f9565b5b60200260200101819052506040518060400160405280600381526020017f383030000000000000000000000000000000000000000000000000000000000081525081600081518110610b9357610b926143f9565b5b60200260200101819052506040518060400160405280600581526020017f776869746500000000000000000000000000000000000000000000000000000081525081600181518110610be857610be76143f9565b5b60200260200101819052506040518060400160405280600681526020017f636f74746f6e000000000000000000000000000000000000000000000000000081525081600281518110610c3d57610c3c6143f9565b5b60200260200101819052506040518060200160405280600081525081600381518110610c6c57610c6b6143f9565b5b60200260200101819052506040518060200160405280600081525081600481518110610c9b57610c9a6143f9565b5b6020026020010181905250610ce7336040518060400160405280600581526020017f73686972740000000000000000000000000000000000000000000000000000008152508484611082565b6040518060400160405280600481526020017f636f73740000000000000000000000000000000000000000000000000000000081525082600081518110610d3157610d306143f9565b5b60200260200101819052506040518060400160405280600581526020017f636f6c6f7200000000000000000000000000000000000000000000000000000081525082600181518110610d8657610d856143f9565b5b60200260200101819052506040518060400160405280600481526020017f747970650000000000000000000000000000000000000000000000000000000081525082600281518110610ddb57610dda6143f9565b5b60200260200101819052506040518060200160405280600081525082600381518110610e0a57610e096143f9565b5b60200260200101819052506040518060200160405280600081525082600481518110610e3957610e386143f9565b5b60200260200101819052506040518060400160405280600481526020017f313230300000000000000000000000000000000000000000000000000000000081525081600081518110610e8e57610e8d6143f9565b5b60200260200101819052506040518060400160405280600481526020017f626c75650000000000000000000000000000000000000000000000000000000081525081600181518110610ee357610ee26143f9565b5b60200260200101819052506040518060400160405280600981526020017f706f6c796573746572000000000000000000000000000000000000000000000081525081600281518110610f3857610f376143f9565b5b60200260200101819052506040518060200160405280600081525081600381518110610f6757610f666143f9565b5b60200260200101819052506040518060200160405280600081525081600481518110610f9657610f956143f9565b5b6020026020010181905250610fe2336040518060400160405280600381526020017f62616700000000000000000000000000000000000000000000000000000000008152508484611082565b5050565b61107b6000808373ffffffffffffffffffffffffffffffffffffffff1673ffffffffffffffffffffffffffffffffffffffff16815260200190815260200160002080548060200260200160405190810160405280929190818152602001828054801561107157602002820191906000526020600020905b81548152602001906001019080831161105d575b5050505050611a02565b5050505050565b600061108d85611844565b511161109857600080fd5b6110a484848484612912565b50505050565b6110b48282612eef565b5050565b6060600080816040516020016110ce9190614449565b6040516020818303038152906040528051906020012060001c9050606060046000838152602001908152602001600020805480602002602001604051908101604052809291908181526020016000905b828210156111ca57838290600052602060002001805461113d90614493565b80601f016020809104026020016040519081016040528092919081815260200182805461116990614493565b80156111b65780601f1061118b576101008083540402835291602001916111b6565b820191906000526020600020905b81548152906001019060200180831161119957829003601f168201915b50505050508152602001906001019061111e565b505050508184815181106111e1576111e06143f9565b5b60200260200101819052505b60006004600084815260200190815260200160002080549050111561134c578280611217906144f3565b93505060046000838152602001908152602001600020805480602002602001604051908101604052809291908181526020016000905b828210156112f957838290600052602060002001805461126c90614493565b80601f016020809104026020016040519081016040528092919081815260200182805461129890614493565b80156112e55780601f106112ba576101008083540402835291602001916112e5565b820191906000526020600020905b8154815290600101906020018083116112c857829003601f168201915b50505050508152602001906001019061124d565b505050508184815181106113105761130f6143f9565b5b60200260200101819052508260405160200161132c9190614449565b6040516020818303038152906040528051906020012060001c91506111ed565b80935050505090565b611394336040518060400160405280600581526020017f75736572310000000000000000000000000000000000000000000000000000008152506110aa565b6113e773e0f5206bbd039e7b0592d8918820024e2a7437b96040518060400160405280600781526020017f53616d70617468000000000000000000000000000000000000000000000000008152506110aa565b565b60006113f5600061152d565b9050611418813373e0f5206bbd039e7b0592d8918820024e2a7437b96000612f40565b50565b600081036114415761144073e0f5206bbd039e7b0592d8918820024e2a7437b9610fe6565b5b61144a33610fe6565b50565b6000600580549050905090565b600080600080600080600061146d610612565b905061147881613212565b96509650965096509650965050909192939495565b600160205280600052604060002060009150905080546114ac90614493565b80601f01602080910402602001604051908101604052809291908181526020018280546114d890614493565b80156115255780601f106114fa57610100808354040283529160200191611525565b820191906000526020600020905b81548152906001019060200180831161150857829003601f168201915b505050505081565b600080826040516020016115419190614449565b6040516020818303038152906040528051906020012060001c905080915050919050565b6000806003600084815260200190815260200160002054905080915050919050565b606080606080600061159886611844565b51116115a357600080fd5b6116386000808773ffffffffffffffffffffffffffffffffffffffff1673ffffffffffffffffffffffffffffffffffffffff16815260200190815260200160002080548060200260200160405190810160405280929190818152602001828054801561162e57602002820191906000526020600020905b81548152602001906001019080831161161a575b5050505050611a02565b809450819550829650839750505050509193509193565b6005818154811061165f57600080fd5b906000526020600020906004020160009150905080600001549080600101805461168890614493565b80601f01602080910402602001604051908101604052809291908181526020018280546116b490614493565b80156117015780601f106116d657610100808354040283529160200191611701565b820191906000526020600020905b8154815290600101906020018083116116e457829003601f168201915b5050505050905082565b606060046000838152602001908152602001600020805480602002602001604051908101604052809291908181526020016000905b828210156117ec57838290600052602060002001805461175f90614493565b80601f016020809104026020016040519081016040528092919081815260200182805461178b90614493565b80156117d85780601f106117ad576101008083540402835291602001916117d8565b820191906000526020600020905b8154815290600101906020018083116117bb57829003601f168201915b505050505081526020019060010190611740565b505050509050919050565b60006118413373e0f5206bbd039e7b0592d8918820024e2a7437b9836040516020016118239190614566565b6040516020818303038152906040528051906020012060001c611915565b50565b6060600160008373ffffffffffffffffffffffffffffffffffffffff1673ffffffffffffffffffffffffffffffffffffffff168152602001908152602001600020805461189090614493565b80601f01602080910402602001604051908101604052809291908181526020018280546118bc90614493565b80156119095780601f106118de57610100808354040283529160200191611909565b820191906000526020600020905b8154815290600101906020018083116118ec57829003601f168201915b50505050509050919050565b6000600360008381526020019081526020016000205490506000808473ffffffffffffffffffffffffffffffffffffffff1673ffffffffffffffffffffffffffffffffffffffff168152602001908152602001600020819080600181540180825580915050600190039060005260206000200160009091909190915055826002600083815260200190815260200160002060006101000a81548173ffffffffffffffffffffffffffffffffffffffff021916908373ffffffffffffffffffffffffffffffffffffffff1602179055506119ee84826132b7565b506119fc8285856001612f40565b50505050565b60608060608060008551905060008167ffffffffffffffff811115611a2a57611a29613c77565b5b604051908082528060200260200182016040528015611a5d57816020015b6060815260200190600190039081611a485790505b50905060008267ffffffffffffffff811115611a7c57611a7b613c77565b5b604051908082528060200260200182016040528015611aaf57816020015b6060815260200190600190039081611a9a5790505b50905060008367ffffffffffffffff811115611ace57611acd613c77565b5b604051908082528060200260200182016040528015611b0157816020015b6060815260200190600190039081611aec5790505b50905060008467ffffffffffffffff811115611b2057611b1f613c77565b5b604051908082528060200260200182016040528015611b4e5781602001602082028036833780820191505090505b50905060005b858110156128f957606060008c8381518110611b7357611b726143f9565b5b602002602001015190506000600567ffffffffffffffff811115611b9a57611b99613c77565b5b604051908082528060200260200182016040528015611bcd57816020015b6060815260200190600190039081611bb85790505b5090506000600567ffffffffffffffff811115611bed57611bec613c77565b5b604051908082528060200260200182016040528015611c2057816020015b6060815260200190600190039081611c0b5790505b509050600567ffffffffffffffff811115611c3e57611c3d613c77565b5b604051908082528060200260200182016040528015611c7157816020015b6060815260200190600190039081611c5c5790505b50888681518110611c8557611c846143f9565b5b6020026020010181905250600567ffffffffffffffff811115611cab57611caa613c77565b5b604051908082528060200260200182016040528015611cde57816020015b6060815260200190600190039081611cc95790505b50878681518110611cf257611cf16143f9565b5b6020026020010181905250600060058481548110611d1357611d126143f9565b5b90600052602060002090600402016001018054611d2f90614493565b80601f0160208091040260200160405190810160405280929190818152602001828054611d5b90614493565b8015611da85780601f10611d7d57610100808354040283529160200191611da8565b820191906000526020600020905b815481529060010190602001808311611d8b57829003601f168201915b5050505050945060058481548110611dc357611dc26143f9565b5b9060005260206000209060040201600301600081548110611de757611de66143f9565b5b906000526020600020018054611dfc90614493565b80601f0160208091040260200160405190810160405280929190818152602001828054611e2890614493565b8015611e755780601f10611e4a57610100808354040283529160200191611e75565b820191906000526020600020905b815481529060010190602001808311611e5857829003601f168201915b505050505083600081518110611e8e57611e8d6143f9565b5b602002602001018190525060058481548110611ead57611eac6143f9565b5b9060005260206000209060040201600301600181548110611ed157611ed06143f9565b5b906000526020600020018054611ee690614493565b80601f0160208091040260200160405190810160405280929190818152602001828054611f1290614493565b8015611f5f5780601f10611f3457610100808354040283529160200191611f5f565b820191906000526020600020905b815481529060010190602001808311611f4257829003601f168201915b505050505083600181518110611f7857611f776143f9565b5b602002602001018190525060058481548110611f9757611f966143f9565b5b9060005260206000209060040201600301600281548110611fbb57611fba6143f9565b5b906000526020600020018054611fd090614493565b80601f0160208091040260200160405190810160405280929190818152602001828054611ffc90614493565b80156120495780601f1061201e57610100808354040283529160200191612049565b820191906000526020600020905b81548152906001019060200180831161202c57829003601f168201915b505050505083600281518110612062576120616143f9565b5b602002602001018190525060058481548110612081576120806143f9565b5b90600052602060002090600402016003016003815481106120a5576120a46143f9565b5b9060005260206000200180546120ba90614493565b80601f01602080910402602001604051908101604052809291908181526020018280546120e690614493565b80156121335780601f1061210857610100808354040283529160200191612133565b820191906000526020600020905b81548152906001019060200180831161211657829003601f168201915b50505050508360038151811061214c5761214b6143f9565b5b60200260200101819052506005848154811061216b5761216a6143f9565b5b906000526020600020906004020160030160048154811061218f5761218e6143f9565b5b9060005260206000200180546121a490614493565b80601f01602080910402602001604051908101604052809291908181526020018280546121d090614493565b801561221d5780601f106121f25761010080835404028352916020019161221d565b820191906000526020600020905b81548152906001019060200180831161220057829003601f168201915b505050505083600481518110612236576122356143f9565b5b602002602001018190525060058481548110612255576122546143f9565b5b90600052602060002090600402016002016005858154811061227a576122796143f9565b5b906000526020600020906004020160030160008154811061229e5761229d6143f9565b5b906000526020600020016040516122b59190614624565b908152602001604051809103902080546122ce90614493565b80601f01602080910402602001604051908101604052809291908181526020018280546122fa90614493565b80156123475780601f1061231c57610100808354040283529160200191612347565b820191906000526020600020905b81548152906001019060200180831161232a57829003601f168201915b5050505050826000815181106123605761235f6143f9565b5b60200260200101819052506005848154811061237f5761237e6143f9565b5b9060005260206000209060040201600201600585815481106123a4576123a36143f9565b5b90600052602060002090600402016003016001815481106123c8576123c76143f9565b5b906000526020600020016040516123df9190614624565b908152602001604051809103902080546123f890614493565b80601f016020809104026020016040519081016040528092919081815260200182805461242490614493565b80156124715780601f1061244657610100808354040283529160200191612471565b820191906000526020600020905b81548152906001019060200180831161245457829003601f168201915b50505050508260018151811061248a576124896143f9565b5b6020026020010181905250600584815481106124a9576124a86143f9565b5b9060005260206000209060040201600201600585815481106124ce576124cd6143f9565b5b90600052602060002090600402016003016002815481106124f2576124f16143f9565b5b906000526020600020016040516125099190614624565b9081526020016040518091039020805461252290614493565b80601f016020809104026020016040519081016040528092919081815260200182805461254e90614493565b801561259b5780601f106125705761010080835404028352916020019161259b565b820191906000526020600020905b81548152906001019060200180831161257e57829003601f168201915b5050505050826002815181106125b4576125b36143f9565b5b6020026020010181905250600584815481106125d3576125d26143f9565b5b9060005260206000209060040201600201600585815481106125f8576125f76143f9565b5b906000526020600020906004020160030160038154811061261c5761261b6143f9565b5b906000526020600020016040516126339190614624565b9081526020016040518091039020805461264c90614493565b80601f016020809104026020016040519081016040528092919081815260200182805461267890614493565b80156126c55780601f1061269a576101008083540402835291602001916126c5565b820191906000526020600020905b8154815290600101906020018083116126a857829003601f168201915b5050505050826003815181106126de576126dd6143f9565b5b6020026020010181905250600584815481106126fd576126fc6143f9565b5b906000526020600020906004020160020160058581548110612722576127216143f9565b5b9060005260206000209060040201600301600481548110612746576127456143f9565b5b9060005260206000200160405161275d9190614624565b9081526020016040518091039020805461277690614493565b80601f01602080910402602001604051908101604052809291908181526020018280546127a290614493565b80156127ef5780601f106127c4576101008083540402835291602001916127ef565b820191906000526020600020905b8154815290600101906020018083116127d257829003601f168201915b505050505082600481518110612808576128076143f9565b5b602002602001018190525060058481548110612827576128266143f9565b5b9060005260206000209060040201600001546040516020016128499190614449565b6040516020818303038152906040528051906020012060001c9050848a8781518110612878576128776143f9565b5b602002602001018190525082898781518110612897576128966143f9565b5b6020026020010181905250818887815181106128b6576128b56143f9565b5b6020026020010181905250808787815181106128d5576128d46143f9565b5b602002602001018181525050505050505080806128f1906144f3565b915050611b54565b5083838383985098509850985050505050509193509193565b600060058054905090506000600560018160018154018082558091505003906000526020600020906004020190508181600001819055508481600101908161295a91906147d2565b508260008151811061296f5761296e6143f9565b5b6020026020010151816002018560008151811061298f5761298e6143f9565b5b60200260200101516040516129a491906148d5565b908152602001604051809103902090816129be91906147d2565b50826001815181106129d3576129d26143f9565b5b602002602001015181600201856001815181106129f3576129f26143f9565b5b6020026020010151604051612a0891906148d5565b90815260200160405180910390209081612a2291906147d2565b5082600281518110612a3757612a366143f9565b5b60200260200101518160020185600281518110612a5757612a566143f9565b5b6020026020010151604051612a6c91906148d5565b90815260200160405180910390209081612a8691906147d2565b5082600381518110612a9b57612a9a6143f9565b5b60200260200101518160020185600381518110612abb57612aba6143f9565b5b6020026020010151604051612ad091906148d5565b90815260200160405180910390209081612aea91906147d2565b5082600481518110612aff57612afe6143f9565b5b60200260200101518160020185600481518110612b1f57612b1e6143f9565b5b6020026020010151604051612b3491906148d5565b90815260200160405180910390209081612b4e91906147d2565b508060030184600081518110612b6757612b666143f9565b5b6020026020010151908060018154018082558091505060019003906000526020600020016000909190919091509081612ba091906147d2565b508060030184600181518110612bb957612bb86143f9565b5b6020026020010151908060018154018082558091505060019003906000526020600020016000909190919091509081612bf291906147d2565b508060030184600281518110612c0b57612c0a6143f9565b5b6020026020010151908060018154018082558091505060019003906000526020600020016000909190919091509081612c4491906147d2565b508060030184600381518110612c5d57612c5c6143f9565b5b6020026020010151908060018154018082558091505060019003906000526020600020016000909190919091509081612c9691906147d2565b508060030184600481518110612caf57612cae6143f9565b5b6020026020010151908060018154018082558091505060019003906000526020600020016000909190919091509081612ce891906147d2565b506000808773ffffffffffffffffffffffffffffffffffffffff1673ffffffffffffffffffffffffffffffffffffffff168152602001908152602001600020829080600181540180825580915050600190039060005260206000200160009091909190915055856002600084815260200190815260200160002060006101000a81548173ffffffffffffffffffffffffffffffffffffffff021916908373ffffffffffffffffffffffffffffffffffffffff160217905550505060006001600580549050612db691906148ec565b9050612dee81604051602001612dcc9190614449565b6040516020818303038152906040528051906020012060001c86876000612f40565b600081604051602001612e019190614449565b6040516020818303038152906040528051906020012060001c905081600360008381526020019081526020016000208190555050507f1b1cf3af7aac4f1bf60fdf98878550a02c640800ae163ec468905522278966fe83600160008773ffffffffffffffffffffffffffffffffffffffff1673ffffffffffffffffffffffffffffffffffffffff1681526020019081526020016000206001600580549050612ea991906148ec565b604051602001612eb99190614449565b6040516020818303038152906040528051906020012060001c604051612ee1939291906149a4565b60405180910390a150505050565b80600160008473ffffffffffffffffffffffffffffffffffffffff1673ffffffffffffffffffffffffffffffffffffffff1681526020019081526020016000209081612f3b91906147d2565b505050565b600080600080600080612f5161145a565b809650819750829850839950849a50859b50505050505050606060008803612fb0576040518060400160405280601081526020017f4d616e756661637475726564206f6e20000000000000000000000000000000008152509050612fe9565b6040518060400160405280601981526020017f4f776e657273686970207472616e73666572726564206f6e200000000000000081525090505b80612ff3886134fb565b612ffc886134fb565b613005886134fb565b61300e886134fb565b613017886134fb565b613020886134fb565b6040516020016130369796959493929190614a81565b6040516020818303038152906040529050600088036130d85780600160008c73ffffffffffffffffffffffffffffffffffffffff1673ffffffffffffffffffffffffffffffffffffffff1681526020019081526020016000206130b08c73ffffffffffffffffffffffffffffffffffffffff16601461365b565b6040516020016130c293929190614bb2565b60405160208183030381529060405290506131bf565b80600160008c73ffffffffffffffffffffffffffffffffffffffff1673ffffffffffffffffffffffffffffffffffffffff1681526020019081526020016000206131398c73ffffffffffffffffffffffffffffffffffffffff16601461365b565b600160008d73ffffffffffffffffffffffffffffffffffffffff1673ffffffffffffffffffffffffffffffffffffffff1681526020019081526020016000206131998d73ffffffffffffffffffffffffffffffffffffffff16601461365b565b6040516020016131ad959493929190614c5c565b60405160208183030381529060405290505b600460008c81526020019081526020016000208190806001815401808255809150506001900390600052602060002001600090919091909150908161320491906147d2565b505050505050505050505050565b60008060008060008061323762015180888161323157613230614cf2565b5b04613897565b809650819750829850505050600062015180888161325857613257614cf2565b5b069050610e10818161326d5761326c614cf2565b5b049350610e10818161328257613281614cf2565b5b069050603c818161329657613295614cf2565b5b049250603c81816132aa576132a9614cf2565b5b0691505091939550919395565b6000806000905060005b6000808673ffffffffffffffffffffffffffffffffffffffff1673ffffffffffffffffffffffffffffffffffffffff1681526020019081526020016000208054905081101561338657836000808773ffffffffffffffffffffffffffffffffffffffff1673ffffffffffffffffffffffffffffffffffffffff168152602001908152602001600020828154811061335b5761335a6143f9565b5b90600052602060002001540361337357809150613386565b808061337e906144f3565b9150506132c1565b506000808573ffffffffffffffffffffffffffffffffffffffff1673ffffffffffffffffffffffffffffffffffffffff16815260200190815260200160002060016000808773ffffffffffffffffffffffffffffffffffffffff1673ffffffffffffffffffffffffffffffffffffffff1681526020019081526020016000208054905061341391906148ec565b81548110613424576134236143f9565b5b90600052602060002001546000808673ffffffffffffffffffffffffffffffffffffffff1673ffffffffffffffffffffffffffffffffffffffff168152602001908152602001600020828154811061347f5761347e6143f9565b5b90600052602060002001819055506000808573ffffffffffffffffffffffffffffffffffffffff1673ffffffffffffffffffffffffffffffffffffffff1681526020019081526020016000208054806134db576134da614d21565b5b600190038181906000526020600020016000905590558091505092915050565b606060008203613542576040518060400160405280600181526020017f30000000000000000000000000000000000000000000000000000000000000008152509050613656565b600082905060005b6000821461357457808061355d906144f3565b915050600a8261356d9190614d50565b915061354a565b60008167ffffffffffffffff8111156135905761358f613c77565b5b6040519080825280601f01601f1916602001820160405280156135c25781602001600182028036833780820191505090505b5090505b6000851461364f576001826135db91906148ec565b9150600a856135ea9190614d81565b60306135f69190614db2565b60f81b81838151811061360c5761360b6143f9565b5b60200101907effffffffffffffffffffffffffffffffffffffffffffffffffffffffffffff1916908160001a905350600a856136489190614d50565b94506135c6565b8093505050505b919050565b60606000600283600261366e9190614de6565b6136789190614db2565b67ffffffffffffffff81111561369157613690613c77565b5b6040519080825280601f01601f1916602001820160405280156136c35781602001600182028036833780820191505090505b5090507f3000000000000000000000000000000000000000000000000000000000000000816000815181106136fb576136fa6143f9565b5b60200101907effffffffffffffffffffffffffffffffffffffffffffffffffffffffffffff1916908160001a9053507f78000000000000000000000000000000000000000000000000000000000000008160018151811061375f5761375e6143f9565b5b60200101907effffffffffffffffffffffffffffffffffffffffffffffffffffffffffffff1916908160001a9053506000600184600261379f9190614de6565b6137a99190614db2565b90505b6001811115613849577f3031323334353637383961626364656600000000000000000000000000000000600f8616601081106137eb576137ea6143f9565b5b1a60f81b828281518110613802576138016143f9565b5b60200101907effffffffffffffffffffffffffffffffffffffffffffffffffffffffffffff1916908160001a905350600485901c94508061384290614e28565b90506137ac565b506000841461388d576040517f08c379a000000000000000000000000000000000000000000000000000000000815260040161388490614e9d565b60405180910390fd5b8091505092915050565b600080600080849050600062253d8c62010bd98301019050600062023ab182600402816138c7576138c6614cf2565b5b059050600460038262023ab10201816138e3576138e2614cf2565b5b0582039150600062164b0960018401610fa0028161390457613903614cf2565b5b059050601f6004826105b5028161391e5761391d614cf2565b5b058403019250600061098f846050028161393b5761393a614cf2565b5b059050600060508261098f028161395557613954614cf2565b5b0585039050600b828161396b5761396a614cf2565b5b05945084600c0260028301039150848360318603606402010192508298508197508096505050505050509193909250565b6000604051905090565b600080fd5b600080fd5b600073ffffffffffffffffffffffffffffffffffffffff82169050919050565b60006139db826139b0565b9050919050565b6139eb816139d0565b81146139f657600080fd5b50565b600081359050613a08816139e2565b92915050565b600060208284031215613a2457613a236139a6565b5b6000613a32848285016139f9565b91505092915050565b600081519050919050565b600082825260208201905092915050565b6000819050602082019050919050565b6000819050919050565b613a7a81613a67565b82525050565b6000613a8c8383613a71565b60208301905092915050565b6000602082019050919050565b6000613ab082613a3b565b613aba8185613a46565b9350613ac583613a57565b8060005b83811015613af6578151613add8882613a80565b9750613ae883613a98565b925050600181019050613ac9565b5085935050505092915050565b60006020820190508181036000830152613b1d8184613aa5565b905092915050565b613b2e81613a67565b8114613b3957600080fd5b50565b600081359050613b4b81613b25565b92915050565b600060208284031215613b6757613b666139a6565b5b6000613b7584828501613b3c565b91505092915050565b613b87816139d0565b82525050565b6000602082019050613ba26000830184613b7e565b92915050565b600080600060608486031215613bc157613bc06139a6565b5b6000613bcf868287016139f9565b9350506020613be0868287016139f9565b9250506040613bf186828701613b3c565b9150509250925092565b613c0481613a67565b82525050565b6000602082019050613c1f6000830184613bfb565b92915050565b60006040820190508181036000830152613c3f8185613aa5565b90508181036020830152613c538184613aa5565b90509392505050565b600080fd5b600080fd5b6000601f19601f8301169050919050565b7f4e487b7100000000000000000000000000000000000000000000000000000000600052604160045260246000fd5b613caf82613c66565b810181811067ffffffffffffffff82111715613cce57613ccd613c77565b5b80604052505050565b6000613ce161399c565b9050613ced8282613ca6565b919050565b600067ffffffffffffffff821115613d0d57613d0c613c77565b5b613d1682613c66565b9050602081019050919050565b82818337600083830152505050565b6000613d45613d4084613cf2565b613cd7565b905082815260208101848484011115613d6157613d60613c61565b5b613d6c848285613d23565b509392505050565b600082601f830112613d8957613d88613c5c565b5b8135613d99848260208601613d32565b91505092915050565b600067ffffffffffffffff821115613dbd57613dbc613c77565b5b602082029050602081019050919050565b600080fd5b6000613de6613de184613da2565b613cd7565b90508083825260208201905060208402830185811115613e0957613e08613dce565b5b835b81811015613e5057803567ffffffffffffffff811115613e2e57613e2d613c5c565b5b808601613e3b8982613d74565b85526020850194505050602081019050613e0b565b5050509392505050565b600082601f830112613e6f57613e6e613c5c565b5b8135613e7f848260208601613dd3565b91505092915050565b60008060008060808587031215613ea257613ea16139a6565b5b6000613eb0878288016139f9565b945050602085013567ffffffffffffffff811115613ed157613ed06139ab565b5b613edd87828801613d74565b935050604085013567ffffffffffffffff811115613efe57613efd6139ab565b5b613f0a87828801613e5a565b925050606085013567ffffffffffffffff811115613f2b57613f2a6139ab565b5b613f3787828801613e5a565b91505092959194509250565b60008060408385031215613f5a57613f596139a6565b5b6000613f68858286016139f9565b925050602083013567ffffffffffffffff811115613f8957613f886139ab565b5b613f9585828601613d74565b9150509250929050565b600081519050919050565b600082825260208201905092915050565b6000819050602082019050919050565b600081519050919050565b600082825260208201905092915050565b6000819050602082019050919050565b600081519050919050565b600082825260208201905092915050565b60005b83811015614031578082015181840152602081019050614016565b60008484015250505050565b600061404882613ff7565b6140528185614002565b9350614062818560208601614013565b61406b81613c66565b840191505092915050565b6000614082838361403d565b905092915050565b6000602082019050919050565b60006140a282613fcb565b6140ac8185613fd6565b9350836020820285016140be85613fe7565b8060005b858110156140fa57848403895281516140db8582614076565b94506140e68361408a565b925060208a019950506001810190506140c2565b50829750879550505050505092915050565b60006141188383614097565b905092915050565b6000602082019050919050565b600061413882613f9f565b6141428185613faa565b93508360208202850161415485613fbb565b8060005b858110156141905784840389528151614171858261410c565b945061417c83614120565b925060208a01995050600181019050614158565b50829750879550505050505092915050565b600060208201905081810360008301526141bc818461412d565b905092915050565b600060c0820190506141d96000830189613bfb565b6141e66020830188613bfb565b6141f36040830187613bfb565b6142006060830186613bfb565b61420d6080830185613bfb565b61421a60a0830184613bfb565b979650505050505050565b600082825260208201905092915050565b600061424182613ff7565b61424b8185614225565b935061425b818560208601614013565b61426481613c66565b840191505092915050565b600060208201905081810360008301526142898184614236565b905092915050565b600082825260208201905092915050565b60006142ad82613fcb565b6142b78185614291565b9350836020820285016142c985613fe7565b8060005b8581101561430557848403895281516142e68582614076565b94506142f18361408a565b925060208a019950506001810190506142cd565b50829750879550505050505092915050565b6000608082019050818103600083015261433181876142a2565b90508181036020830152614345818661412d565b90508181036040830152614359818561412d565b9050818103606083015261436d8184613aa5565b905095945050505050565b600060408201905061438d6000830185613bfb565b818103602083015261439f8184614236565b90509392505050565b600060208201905081810360008301526143c281846142a2565b905092915050565b7f4e487b7100000000000000000000000000000000000000000000000000000000600052600160045260246000fd5b7f4e487b7100000000000000000000000000000000000000000000000000000000600052603260045260246000fd5b6000819050919050565b61444361443e82613a67565b614428565b82525050565b60006144558284614432565b60208201915081905092915050565b7f4e487b7100000000000000000000000000000000000000000000000000000000600052602260045260246000fd5b600060028204905060018216806144ab57607f821691505b6020821081036144be576144bd614464565b5b50919050565b7f4e487b7100000000000000000000000000000000000000000000000000000000600052601160045260246000fd5b60006144fe82613a67565b91507fffffffffffffffffffffffffffffffffffffffffffffffffffffffffffffffff82036145305761452f6144c4565b5b600182019050919050565b6000819050919050565b6000819050919050565b61456061455b8261453b565b614545565b82525050565b6000614572828461454f565b60208201915081905092915050565b600081905092915050565b60008190508160005260206000209050919050565b600081546145ae81614493565b6145b88186614581565b945060018216600081146145d357600181146145e85761461b565b60ff198316865281151582028601935061461b565b6145f18561458c565b60005b83811015614613578154818901526001820191506020810190506145f4565b838801955050505b50505092915050565b600061463082846145a1565b915081905092915050565b60006020601f8301049050919050565b600082821b905092915050565b6000600883026146887fffffffffffffffffffffffffffffffffffffffffffffffffffffffffffffffff8261464b565b614692868361464b565b95508019841693508086168417925050509392505050565b6000819050919050565b60006146cf6146ca6146c584613a67565b6146aa565b613a67565b9050919050565b6000819050919050565b6146e9836146b4565b6146fd6146f5826146d6565b848454614658565b825550505050565b600090565b614712614705565b61471d8184846146e0565b505050565b5b818110156147415761473660008261470a565b600181019050614723565b5050565b601f821115614786576147578161458c565b6147608461463b565b8101602085101561476f578190505b61478361477b8561463b565b830182614722565b50505b505050565b600082821c905092915050565b60006147a96000198460080261478b565b1980831691505092915050565b60006147c28383614798565b9150826002028217905092915050565b6147db82613ff7565b67ffffffffffffffff8111156147f4576147f3613c77565b5b6147fe8254614493565b614809828285614745565b600060209050601f83116001811461483c576000841561482a578287015190505b61483485826147b6565b86555061489c565b601f19841661484a8661458c565b60005b828110156148725784890151825560018201915060208501945060208101905061484d565b8683101561488f578489015161488b601f891682614798565b8355505b6001600288020188555050505b505050505050565b60006148af82613ff7565b6148b98185614581565b93506148c9818560208601614013565b80840191505092915050565b60006148e182846148a4565b915081905092915050565b60006148f782613a67565b915061490283613a67565b925082820390508181111561491a576149196144c4565b5b92915050565b6000815461492d81614493565b6149378186614225565b9450600182166000811461495257600181146149685761499b565b60ff19831686528115156020028601935061499b565b6149718561458c565b60005b8381101561499357815481890152600182019150602081019050614974565b808801955050505b50505092915050565b600060608201905081810360008301526149be8186614236565b905081810360208301526149d28185614920565b90506149e16040830184613bfb565b949350505050565b7f2d00000000000000000000000000000000000000000000000000000000000000815250565b7f2000000000000000000000000000000000000000000000000000000000000000815250565b7f3a00000000000000000000000000000000000000000000000000000000000000815250565b7f20474d5420000000000000000000000000000000000000000000000000000000815250565b6000614a8d828a6148a4565b9150614a9982896148a4565b9150614aa4826149e9565b600182019150614ab482886148a4565b9150614abf826149e9565b600182019150614acf82876148a4565b9150614ada82614a0f565b600182019150614aea82866148a4565b9150614af582614a35565b600182019150614b0582856148a4565b9150614b1082614a35565b600182019150614b2082846148a4565b9150614b2b82614a5b565b60058201915081905098975050505050505050565b7f6279200000000000000000000000000000000000000000000000000000000000815250565b7f2028000000000000000000000000000000000000000000000000000000000000815250565b7f2029000000000000000000000000000000000000000000000000000000000000815250565b6000614bbe82866148a4565b9150614bc982614b40565b600382019150614bd982856145a1565b9150614be482614b66565b600282019150614bf482846148a4565b9150614bff82614b8c565b600282019150819050949350505050565b7f2066726f6d200000000000000000000000000000000000000000000000000000815250565b7f2920746f20000000000000000000000000000000000000000000000000000000815250565b6000614c6882886148a4565b9150614c7382614c10565b600682019150614c8382876145a1565b9150614c8e82614b66565b600282019150614c9e82866148a4565b9150614ca982614c36565b600582019150614cb982856145a1565b9150614cc482614b66565b600282019150614cd482846148a4565b9150614cdf82614b8c565b6002820191508190509695505050505050565b7f4e487b7100000000000000000000000000000000000000000000000000000000600052601260045260246000fd5b7f4e487b7100000000000000000000000000000000000000000000000000000000600052603160045260246000fd5b6000614d5b82613a67565b9150614d6683613a67565b925082614d7657614d75614cf2565b5b828204905092915050565b6000614d8c82613a67565b9150614d9783613a67565b925082614da757614da6614cf2565b5b828206905092915050565b6000614dbd82613a67565b9150614dc883613a67565b9250828201905080821115614de057614ddf6144c4565b5b92915050565b6000614df182613a67565b9150614dfc83613a67565b9250828202614e0a81613a67565b91508282048414831517614e2157614e206144c4565b5b5092915050565b6000614e3382613a67565b915060008203614e4657614e456144c4565b5b600182039050919050565b7f537472696e67733a20686578206c656e67746820696e73756666696369656e74600082015250565b6000614e87602083614225565b9150614e9282614e51565b602082019050919050565b60006020820190508181036000830152614eb681614e7a565b905091905056fea26469706673582212208fb7a53f2eb80a98d3e9c3a07e92d6103abb3c663caf963ed71995b82e748a0064736f6c63430008110033",
  "linkReferences": {},
  "deployedLinkReferences": {}
}